:020000040800F2
:10000000C0060020CD010008471200083311000887
:1000100045120008FD020008091500080000000054
:100020000000000000000000000000006B1200084B
:10003000FF02000800000000691200086D120008AD
:10004000E7010008E7010008E7010008E7010008F0
:10005000E7010008E7010008E7010008E7010008E0
:10006000E7010008E7010008E7010008E7010008D0
:10007000E7010008E7010008E7010008E7010008C0
:10008000E7010008E7010008E7010008E7010008B0
:10009000E7010008E7010008E7010008E7010008A0
:1000A000E7010008D1120008E7010008E701000895
:1000B000E7010008E7010008E7010008E701000880
:1000C000E7010008E7010008E7010008E701000870
:1000D000E7010008E7010008E7010008E701000860
:1000E000E7010008E7010008E7010008E701000850
:1000F000E7010008E7010008E7010008E701000840
:10010000E7010008E7010008E7010008E70100082F
:10011000E7010008E7010008E7010008E70100081F
:10012000E7010008E7010008E7010008E70100080F
:1001300000F002F800F03AF80AA090E8000C8244BF
:100140008344AAF10107DA4501D100F02FF8AFF29C
:10015000090EBAE80F0013F0010F18BFFB1A43F0A5
:10016000010318471C1400003C140000103A24BF7F
:1001700078C878C1FAD8520724BF30C830C144BF0C
:1001800004680C607047000000230024002500264E
:10019000103A28BF78C1FBD8520728BF30C148BFEA
:1001A0000B6070471FB51FBD10B510BD00F058F8AB
:1001B0001146FFF7F7FF01F0B8F900F076F803B445
:1001C000FFF7F2FF03BC00F07DF80000094880470C
:1001D00009480047FEE7FEE7FEE7FEE7FEE7FEE729
:1001E000FEE7FEE7FEE7FEE704480549054A064B41
:1001F00070470000CF12000831010008C000002045
:10020000C0060020C0020020C00200204FF0000203
:1002100000B5134694469646203922BFA0E80C50FC
:10022000A0E80C50B1F12001BFF4F7AF090728BFD7
:10023000A0E80C5048BF0CC05DF804EB890028BF53
:1002400040F8042B08BF704748BF20F8022B11F07C
:10025000804F18BF00F8012B7047704770477047F8
:10026000754600F02BF8AE4605006946534620F06F
:100270000700854618B020B5FFF7B6FFBDE820405F
:100280004FF000064FF000074FF000084FF0000B52
:1002900021F00701AC46ACE8C009ACE8C009ACE805
:1002A000C009ACE8C0098D46704710B50446AFF3ED
:1002B00000802046BDE81040FFF781BF004870472E
:1002C0006000002001491820ABBEFEE726000200B6
:1002D0007047000010B5040007484FF4006102D5D4
:1002E0006442002200E0012200F01AF92046BDE835
:1002F000104000F0A9BF000000080140FEE7704771
:1003000072B6FEE770B5044600F010F90546601CB1
:1003100002D004480078044400F008F9401BA042D1
:10032000FAD370BD080000202DE9F84FDFF8C8911E
:100330000024A9F1040B23460F2709F1040AABF1AD
:10034000040ED1E00125A54006EA0502AA4276D1B5
:10035000DFF8A8C14E68A6EB0C0866452BD00DDC73
:10036000032E34D005DC36B3012E19D0022E2FD146
:100370001BE0112E16D0122E2AD119E0B8F5881FD5
:1003800019D006DCB8F5803F15D0B8F5801F1FD115
:1003900011E0B8F5001F0ED0B8F5041F18D10AE01F
:1003A000CB6815E0CB681B1D12E0CB6808330FE06B
:1003B000CB680C330CE08B682BB1012B4FF008039A
:1003C00003D0456104E0042302E0056100E000235E
:1003D000FF2A01D8064601E000F104064FEA840531
:1003E00001D9A5F12005D6F8008007FA05FC28EA16
:1003F0000C0803FA05F548EA0508C6F800804D68C0
:10040000ED0070D53E4DAE6946F00106AE61AD69B6
:1004100024F0030605F0010500953A4D06EB050CA6
:10042000DCF80850A607360F07FA06F825EA080593
:10043000DFF8D480404503D14FF0000825E052E0BA
:10044000DFF8C880404502D14FF001081DE0DFF819
:10045000C080404502D14FF0020816E0DFF8B480BA
:10046000404502D14FF003080FE0DFF8AC80404573
:1004700002D14FF0040808E0DFF8A080404502D127
:100480004FF0050801E04FF0060808FA06F848EAC0
:100490000508CCF808804D68D9F80060ED024D469B
:1004A00001D5164300E096432E604D68DAF80060EF
:1004B000AD02554601D5164300E096432E604D68C7
:1004C000DBF80060AD035D4601D5164300E09643BE
:1004D0002E604D68DEF80060ED03754601D51643C9
:1004E00000E096432E60641C0A681646E2407FF4E2
:1004F00029AFBDE8F88F000008040140000011108A
:10050000001002400000014000080140000C0140C2
:10051000001001400014014000180140001C01407F
:100520000AB1016170470904FBE7000001488068D7
:1005300070470000080000200248816802781144DA
:100540008160704708000020074810B5016841F03D
:1005500010010160032000F075F80F2000F006F88C
:1005600000F024F8002010BD0020024070B50D4DB1
:1005700004464FF47A712878B1FBF0F00A49096813
:10058000B1FBF0F000F0BCFA48B9102C07D2002201
:100590002146501E00F036F800206C6070BD01202E
:1005A00070BD000008000020140000200C4808B5B1
:1005B000816941F001018161816901F001010091CE
:1005C000C16941F08051C161C06900F08050009064
:1005D0000448416821F0E06141F00071416008BDCC
:1005E0000010024000000140002809DB00F01F025B
:1005F000012191404009800000F1E020C0F8001185
:1006000070470000F0B40E4B1B680C46C3F3022386
:10061000C3F10705042D00D90425191D072901D2AE
:10062000002300E0DB1E012606FA05F1491E2140E9
:1006300099409E40761E16403143F0BC00F065BFE5
:100640000CED00E0064900F0070208684FF6FF03D2
:10065000184040EA0220034A104308607047000037
:100660000CED00E00000FA052DE9F0470F4605000B
:1006700061D0434E306800F00700B84209D23068BC
:1006800020F0070038433060306800F00700B842BF
:1006900051D128683B4C810712D5400703D56068CB
:1006A00040F4E06060602878000703D5606840F49B
:1006B000605060606068A96820F0F00008436060E6
:1006C0002878C00728D06868012810D0216802283F
:1006D00010D0890700292EDA616821F00301014357
:1006E0006160FFF723FF804641F288390DE0216801
:1006F0008903EFE78901EDE7FFF718FFA0EB080199
:10070000494502D90320BDE8F0876068696800F0B8
:100710000C00B0EB810FEFD1306800F00700B84259
:100720000BD9306820F0070038433060306800F0A3
:100730000700B84201D00120E5E72878400705D539
:100740006068E96820F4E06008436060287800078A
:1007500006D56068296920F4605040EAC1006060F5
:1007600000F018F86168084AC1F30311515CC840F1
:100770000649086006480068FFF7F8FE0020C2E757
:1007800000200240001002407015000814000020F4
:100790000C0000200E4A51680E4801F00C03042B97
:1007A00011D0082B0FD10C48C1F38343C903C05C9F
:1007B0000AD55168084AC1F34041921E515C054A6E
:1007C0005043B0FBF1F070470449484370470000C4
:1007D0000010024000127A006015000800093D0078
:1007E0002DE9F84F040070D02078C04DC00749D0E3
:1007F0006868C0F38100012807D06868C0F38100F1
:10080000022809D16868C00306D52868800339D555
:1008100060680028E7D035E06068B0F5803F0BD015
:1008200010B1B0F5A02F11D0286820F480302860D6
:10083000286820F4802002E0286840F48030286096
:10084000606890B1FFF772FE06460AE0286840F43F
:1008500080202860F0E700BFFFF768FE801B642857
:1008600073D828688003F7D50CE0FFF75FFE0646D3
:1008700005E000BFFFF75AFE801B6428F0D8286807
:100880008003F7D420789A4E80074FF001094FF08B
:10089000000839D5686810F00C0F07D06868C0F3FD
:1008A0008100022809D16868C00306D4286880073F
:1008B00014D52069012808D110E02069B0B1C6F82C
:1008C0000090FFF733FE074605E00AE1FFF72EFE32
:1008D000C01B0228C4D828688007F7D5286861693A
:1008E00020F0F80040EAC10028600DE0C6F8008062
:1008F000FFF71CFE074604E0FFF718FEC01B0228A6
:1009000023D828688007F7D4207800072CD57948A9
:10091000A169D9B1C0F80090FFF708FE074604E0CE
:10092000FFF704FEC01B02280FD8686A8007F7D5BE
:1009300071484FF4FA510068B0FBF1F0009000BF2D
:100940000098411E0091FAD20EE080E0C0F80080CD
:10095000FFF7ECFD074604E0FFF7E8FDC01B0228A7
:1009600075D8686A8007F7D42078400760D5E869B1
:100970000027C00008D4E86940F08050E861E869C9
:10098000012700F0805000905C480168C90513D42D
:100990000168834641F480710160FFF7C7FD82461C
:1009A00006E000BFFFF7C2FDA0EB0A0064284ED8A6
:1009B000DBF80000C005F5D5E06801280AD008B1D1
:1009C000052813D0286A20F001002862286A20F048
:1009D000040002E0286A40F001002862E06841F269
:1009E000883B98B1FFF7A2FD82460BE0286A40F0F1
:1009F00004002862EEE700BFFFF798FDA0EB0A01B4
:100A000059455AD8286A8007F6D50CE0FFF78EFDC5
:100A1000824605E0FFF78AFDA0EB0A0159454CD854
:100A2000286A8007F6D41FB1E86920F08050E86199
:100A3000E06988B36968C1F38101022944D00228C2
:100A4000C6F8608004D0FFF771FD044638E034E05A
:100A5000FFF76CFD074604E0FFF768FDC01B0228A6
:100A60002BD828688001F7D4206AB0F5803F05D1E3
:100A70006868A16820F4003008436860D4E9080180
:100A80000843696821F4741108436860C6F86090EF
:100A9000FFF74CFD044606E025E000BFFFF746FDEA
:100AA000001B022809D828688001F7D51BE000BF89
:100AB000FFF73CFD001B022802D90320BDE8F88F98
:100AC00028688001F4D40EE00128F7D06868226A13
:100AD00000F48031914204D1616A00F470108842C0
:100AE00001D00120EAE70020E8E700000010024002
:100AF0000000424280044242140000200070004086
:100B000010B5401EB0F1807F01D3012010BD4FF021
:100B1000E02460610F21601700F0F7FC0020A06165
:100B200007202061002010BD7047704710B590F875
:100B30003C20012A22D0012280F83C20CA688C681F
:100B400022F4407222434C6822F4806222430C68F3
:100B500022F4006222430C6922F4805222434C6941
:100B600022F400522243C969002322F480420A433E
:100B700001684A6480F83C30002010BD022010BD9E
:100B800070B590F83C20012A2CD0012480F83C401C
:100B9000022280F83D2003685A689D6822F07006A2
:100BA0000A6832435A60104B02689A420ED00F4BCB
:100BB0009A420BD0B2F1804F08D00D4B9A4205D02B
:100BC0000C4B9A4202D00C4B9A4204D1496825F052
:100BD00080031943916080F83D40002180F83C106B
:100BE000084670BD022070BD002C01400034014059
:100BF0000004004000080040000C004090F83D1048
:100C0000012901D001207047022180F83D100168C0
:100C1000CA6842F00102CA6000680E4988420ED0DC
:100C20000D4988420BD0B0F1804F08D00B49884263
:100C300005D00B49884202D00A49884204D1816814
:100C400001F00701062903D0016841F001010160AC
:100C500000207047002C0140003401400004004097
:100C600000080040000C00400168CA6822F0010240
:100C7000CA6001680A6A41F211131A4207D10A6A6E
:100C80009B101A4203D10A6822F001020A60012176
:100C900080F83D1000207047704770B5044600682A
:100CA00001694FF00005C943890715D4C168C943DC
:100CB000890711D4E91E016101202077206880692D
:100CC0008007204602D0FFF7E7FF04E000F0CAF8F3
:100CD000204600F079F9257720680169C943490762
:100CE00017D4C168C943490713D46FF004010161E7
:100CF000022020772068806910F4407F204602D0CF
:100D0000FFF7CAFF04E000F0ADF8204600F05CF900
:100D1000257720680169C943090716D4C168C9430A
:100D2000090712D46FF008010161042020772068C0
:100D3000C0698007204602D0FFF7AEFF04E000F054
:100D400091F8204600F040F9257720680169C943F1
:100D5000C90617D4C168C943C90613D46FF010017E
:100D60000161082020772068C06910F4407F204688
:100D700002D0FFF791FF04E000F074F8204600F085
:100D800023F9257720680169C943C90708D1C168DB
:100D9000C943C90704D1891E0161204600F0AEF99C
:100DA00020680169C943090609D4C168C943090615
:100DB00005D46FF0800101612046FFF7B5FE206881
:100DC0000169C943490609D4C168C943490605D424
:100DD0006FF040010161204600F0AAF92068016926
:100DE000C94389060BD4C168C943890607D46FF08B
:100DF000200101612046BDE87040FFF796BE70BD3E
:100E000000B585B000210091019102910391006825
:100E1000104988421BD11048816941F0400181612D
:100E20008069694600F0400004904FF40070009023
:100E30000220019003900948FFF776FA08484168BC
:100E400021F0C00141F0E06141F0C001416005B016
:100E500000BD0000002C01400010024000180140BD
:100E600000000140704770B5044690F83C00002631
:100E70000D4601280FD0012084F83C006AB1042AF5
:100E80001DD0082A2FD00C2A3FD00126002084F83C
:100E90003C00304670BD022070BD206800F072FA40
:100EA0002068816941F0080181612068816921F031
:100EB00004018161206881692A69114311E0206879
:100EC00000F090FA2068816941F400618161206836
:100ED000816921F480618161206881692A6941EA20
:100EE00002218161D2E7206800F0B2FA2068C1696E
:100EF00041F00801C1612068C16921F00401C161AC
:100F00002068C1692A69114311E0206800F0D4FA11
:100F10002068C16941F40061C1612068C16921F4A0
:100F20008061C1612068C1692A6941EA0221C16109
:100F3000ACE710B5040003D094F83D0010B107E011
:100F4000012010BD002084F83C00204600F01EF86F
:100F5000022084F83D00211D206800F0BFF9012027
:100F600084F8460084F83E0084F83F0084F840008E
:100F700084F8410084F8420084F8430084F8440077
:100F800084F8450084F83D00002010BD08B50068D5
:100F90000B49884212D10B48816941F4006181619B
:100FA0008069002200F40060009011461920FFF7CC
:100FB00029FBBDE808401920FFF716BB08BD00005B
:100FC000002C0140001002407047000010B504469C
:100FD000022249B104290ED0082913D094F8410007
:100FE000012816D0012010BD94F83E000128F9D147
:100FF00084F83E200FE094F83F000128F2D184F8F5
:101000003F2008E094F840000128EBD184F840200C
:1010100001E084F841200122206800F0A5F913497D
:101020002068134A884201D0904203D1436C43F4B4
:1010300000434364206888420DD090420BD0B0F149
:10104000804F08D00B49884205D00B49884202D016
:101050000A49884204D1816801F00701062903D0BA
:10106000016841F001010160002010BD002C014029
:10107000003401400004004000080040000C004023
:1010800030B504460D460068002200F06DF9194B9A
:1010900041F2111120688A10984202D0164B9842F2
:1010A00009D1036A0B4206D1036A134203D1436C90
:1010B00023F4004343642068036A0B4206D1016AAB
:1010C000114203D1016821F00101016001203DB10D
:1010D000042D08D0082D09D084F84100002030BD2F
:1010E00084F83E00FAE784F83F00F7E784F8400010
:1010F000F4E70000002C0140003401400A4910B51B
:1011000088420FD1094C2068401C206061688842E9
:1011100008D10548FFF7A8FD00210348FFF7B0FFFD
:101120000020206010BD00001800002000000020FA
:101130007047FEE730B585B000241748009401944D
:1011400002940394816941F040018161816901F059
:1011500040010491816941F00401816180690F4D72
:1011600000F00400049000224FF480712846FFF73D
:10117000D7F90122D1022846FFF7D2F94FF41060C7
:1011800000900120CDE90104032003906946284620
:10119000FFF7CAF805B030BD00100240000801405A
:1011A00010B592B000240F941C2108A81094FFF7EA
:1011B0002DF820216846FFF729F821481F490160D2
:1011C0004721C0E901144FF47A71C0E90314446166
:1011D0008461FFF7AEFE08B1FFF792F80F940FA9F4
:1011E00017481094FFF7CCFC08B1FFF789F860208E
:1011F000089040F2F310CDE909040B940C940D947F
:10120000002208A90E480E94FFF72DFE08B1FFF743
:1012100077F800944FF40050CDE904400294019413
:101220000394694606480794FFF780FC08B1FFF76E
:1012300067F80348FFF7E4FD12B010BD002C014031
:1012400018000020FEE7FEE710B504460448FFF74B
:10125000D5FC00210248FFF7B9FE0248446010BDEA
:10126000180000200000002070477047FFF764B9A5
:1012700030B58FB028216846FEF7C8FF14210AA8B0
:10128000FEF7C4FF01210804CDE9001000240294F8
:1012900002250491CDE907504FF4E010099068460B
:1012A000FFF79EFA08B172B6FEE70F20CDE90A05F6
:1012B0004FF48060CDE90C4002210AA80E94FFF79C
:1012C000D3F9002801D072B6FEE70FB030BD7047E9
:1012D0000148FFF7E2BC000018000020F0B50268EA
:1012E0001C4B1D4D1D4E1E4F1E4C4FF0804C984206
:1012F00009D0A04207D0604505D0A84203D0B04233
:1013000001D0B84204D122F0700E4A6842EA0E02BF
:10131000984209D0A04207D0604505D0A84203D02A
:10132000B04201D0B84203D122F44075CA682A43C2
:101330004D6922F080022A4302608A68C2620A680C
:101340008262984201D0A04201D109690163012162
:101350004161F0BD002C0140000400400008004045
:10136000000C00400034014010B501F01F030121C2
:10137000046A99408C430462016A9A4011430162F5
:1013800010BD0000F0B5036A026A22F00102026299
:1013900042688469124E24F073050C682C4323F0D4
:1013A00002058B682B430D4DA84201D0B04205D1F8
:1013B00023F00807CB683B4323F00403A84201D085
:1013C000B04205D14D6922F4407215438A692A431F
:1013D00042608461496841630362F0BD002C0140B2
:1013E00000340140F0B5026A036A23F0100303627F
:1013F000436884690D6824F4E64444EA05248D6852
:1014000022F0200242EA05120F4D104EA84201D0F0
:10141000B04206D1CF6822F0800242EA071222F0E1
:101420004002A84201D0B04207D14D6923F4406385
:1014300043EA85038D6943EA850343608461496813
:1014400081630262F0BD0000002C014000340140C5
:10145000F0B5026A036A23F4807303624368C469C7
:1014600022F4007224F073050C68124E2C438D6830
:1014700042EA05220E4DA84201D0B04206D1CF6803
:1014800022F4006242EA072222F48062A84201D0DC
:10149000B04207D14D6923F4405343EA05138D69E7
:1014A00043EA05134360C4614968C1630262F0BD49
:1014B000002C01400034014030B5046A026A22F475
:1014C000805202624268C3690D6823F4E64343EA2E
:1014D00005238D6824F4005444EA0534084DA842DD
:1014E00002D0084DA84204D14D6922F4804242EA5C
:1014F00085124260C36149680164046230BD000026
:10150000002C014000340140FEE70907090E0028C5
:1015100004DB00F1E02080F80014704700F00F00B9
:1015200000F1E02080F8141D7047FFF70DF8FFF779
:101530009FFEFFF7FFFDFFF733FE4FF4C8654FF442
:10154000FA646E422846FEF7C5FE2046FEF7DAFE34
:101550003046FEF7BFFE2046FEF7D4FEF2E701025A
:1015600002030405060708090A0B0C0D0E0F1010E4
:101570000000000000000000010203040607080943
:10158000A015000800000020180000006C010008F1
:10159000B815000818000020A806000088010008FF
:1015A000000000000000000001000000100000002A
:0815B000000000000024F4001B
:0400000508000131BD
:00000001FF
